:1000000038C05CC05BC05AC059C058C057C056C049
:1000100055C075C153C052C051C050C04FC04EC032
:100020004DC0B7C14BC000000000380035003200A1
:10003000040404040404040402020202020203038E
:10004000030303030202010204081020408001029E
:10005000040810200102040810204080000000085D
:10006000000201000003040700000000000000007F
:10007000CE0311241FBECFE5D4E0DEBFCDBF10E01C
:10008000A0E6B0E0EEECF7E002C005900D92A237DA
:10009000B107D9F721E0A2E7B0E001C01D92AD336E
:1000A000B207E1F710E0C9E3D0E003C02197FE01F9
:1000B00086D3C833D107D1F781D287C3A1CFE091CE
:1000C0000F01F0911001309729F010920C0110925D
:1000D0000B0109940895089590E0FC01E45AFF4F44
:1000E0003491FC01EA5BFF4F2491FC01E05DFF4F7E
:1000F000E491EE23E1F0332349F03430C9F0363097
:10010000D1F0333019F48FB58F778FBDF0E0EE0F5B
:10011000FF1FEA5DFF4FA591B4918FB7F89461116D
:100120000EC09C91E22FE095E923EC938FBF0895D8
:100130008FB58F7DEACF85B58F7D85BDE7CFEC91FB
:10014000E22BF3CF806487B9369A3699FECF84B11B
:1001500095B108952091B800260F3327331F21321F
:100160003105ECF42091DC00FC0190E080E02430CB
:1001700069F082E00895A091B8002191AC01485641
:100180005F4FA40FB52FB11D2C930196861798F3DE
:100190008091B800680F6093B80080E0089581E016
:1001A00008951092DC0081E08093DE001092DD0063
:1001B00061E082E191DF61E083E18EDF08980998D8
:1001C00080E280B985E486BF08950895E0910E012C
:1001D00080910D01E81730F4F0E0EE58FF4F808178
:1001E00090E008958FEF9FEF089590910E01809118
:1001F0000D012FEF3FEF981748F4E92FF0E0EE588C
:10020000FF4F208130E09F5F90930E01C901089558
:1002100080910D0190910E01891B990B0895CF9348
:10022000DF93CB01EA01642F95DFCE01DF91CF91FF
:100230000895CF93DF931F92CDB7DEB7698361E056
:10024000CE01019687DF81E090E00F90DF91CF91A2
:10025000089590E080E0089548E050E061E371E0A7
:1002600081E191E0DCCFCF93DF9385ED86BF809174
:10027000940090919500A0919600B09197000796F8
:10028000A11DB11D23E0B695A795979587952A9551
:10029000D1F706B604FC03C01092DC002DC04091DB
:1002A0009400509195006091960070919700452BB5
:1002B000462B472B71F30097A105B10541F02AE1C8
:1002C0002A95F1F700C00197A109B109E2CF809109
:1002D000930091E090939200882371F0C0B1D2B165
:1002E00086B78A7B86BF60E082E1F6DE60E083E16C
:1002F000F3DE57DFD2B9C0B9DF91CF9108951F92D5
:100300000F920FB60F9211242F933F938F939F93C9
:10031000AF93BF9380911D0190911E01A0911F0189
:10032000B09120013091060126E0230F2D3758F5BA
:100330000296A11DB11D2093060180931D0190938B
:100340001E01A0931F01B0932001809102019091A2
:100350000301A0910401B09105010196A11DB11DF9
:100360008093020190930301A0930401B0930501CF
:10037000BF91AF919F918F913F912F910F900FBEA1
:100380000F901F90189529E8230F0396A11DB11D0A
:10039000D2CF1F920F920FB60F9211242F933F933B
:1003A0004F935F936F937F938F939F93AF93BF937D
:1003B000EF93FF9381B1887F803609F449C0E8F557
:1003C000883209F4A2C018F5803109F498C0B8F455
:1003D000882309F4F0C0883009F491C0FF91EF91AF
:1003E000BF91AF919F918F917F916F915F914F914D
:1003F0003F912F910F900FBE0F901F90189588314D
:1004000009F483C0803251F78093DB0014C080343C
:1004100009F497C040F48033B9F38833F9F6809338
:10042000DB0085ECA9C0803509F480C0883509F46B
:1004300090C0883499F617DFD1CF883909F487C086
:1004400030F5883729F050F4883611F0803731F6CE
:1004500083E08093DC001092DA0054C0883809F4FD
:1004600076C0803919F0803809F0B8CF8091DA0071
:10047000803208F06CC0E091DA0081E08E0F80934A
:10048000DA0083B1F0E0E654FF4F80833BC0803B4D
:1004900039F0E0F4803A09F473C0883A09F09ECF4D
:1004A00084E08093DC001092B9001092B800E091D3
:1004B0000901F0910A0109958091B80081110FC0DE
:1004C00081E08093B8001092980009C0803C09F444
:1004D000A8CF883C09F4A5CF883B09F07FCFE091F5
:1004E000B90081E08E0F8093B900F0E0E856FF4F2D
:1004F000808183B99091B9008091B80026C0809125
:10050000010183B985EC86BF69CF9091000180918C
:10051000FF00981748F5E091000181E08E0F80936D
:100520000001F0E0E152FF4F8081EBCFE09100014C
:1005300081E08E0F8093000183B1F0E0E152FF4F24
:100540008083909100018091FF009817D8F285E890
:10055000DACFE091000181E08E0F8093000183B13A
:10056000F0E0E152FF4F80838091DE00811163CF84
:1005700081E08093DD0084EA86BF1092DC002ECFFC
:1005800085EC86BF1092DC008091DA00803230F476
:10059000E091DA00F0E0E654FF4F10826091DA005B
:1005A00070E0E0910701F09108018AEB90E0099575
:1005B0001092DA0013CF1092DB003DCF789483B70E
:1005C000826083BF83B7816083BF89B7816089BF41
:1005D0001EBC8EB582608EBD8EB581608EBD8FB51E
:1005E00081608FBD85B5846085BD85B5806485BD1E
:1005F000329A319A3098379A1AB810920E011092A6
:100600000D0110920C0110920B01CBDD8FE590E0F3
:1006100090930A01809309018BE690E09093080182
:100620008093070180E282B98CE291E090931001FF
:1006300080930F0187B317BA8FEF88BB91B311BABC
:1006400082BBC1E0D0E0E5E0FE2E00E010E02FB775
:10065000F89480911D0190911E01A0911F01B0910D
:1006600020012FBF4091390150913A0160913B0127
:1006700070913C015C016D01A41AB50AC60AD70A43
:10068000B601A5014A3051056105710508F464C041
:100690008093390190933A01A0933B01B0933C01C0
:1006A00096B3909580B38095A1E2B1E0E9E2F1E0E4
:1006B00030E020E0522F692F70E0022E02C07595C5
:1006C00067950A94E2F760FF4DC0F082682F70E0F2
:1006D000052E02C0759567950A94E2F760FF50C039
:1006E000FC922F5F3F4F119631962830310511F75C
:1006F000909331018093320180E024DD95958795B8
:10070000959587958093330181E01CDD95958795BC
:10071000959587958093340182E014DD95958795B2
:10072000959587958093350183E00CDD95958795A8
:10073000959587958093360186E004DD959587959C
:10074000959587958093370187E0FCDC9595879593
:1007500095958795809338010115110509F477CF98
:100760004FDC75CF4081442309F4B0CF4150408322
:10077000BE01022E01C0660F0A94EAF7962BA6CF9F
:100780004C91442309F4ADCF41504C936E0102C00B
:10079000CC0CDD1C5A95E2F78C29A3CFE1E1F1E006
:1007A0001382128288EE93E0A0E0B0E08483958308
:1007B000A683B78384E690E0918380830895EE0F4B
:0E07C000FF1F0590F491E02D0994F894FFCFEF
:1007CE000000000019010F012901E5000801F500E4
:0207DE00E60033
:00000001FF
